{
  "contractName": "Mail",
  "abi": [
    {
      "constant": false,
      "inputs": [
        {
          "name": "pubKey",
          "type": "string"
        }
      ],
      "name": "updatePubRegistry",
      "outputs": [],
      "payable": false,
      "stateMutability": "nonpayable",
      "type": "function"
    },
    {
      "constant": true,
      "inputs": [
        {
          "name": "",
          "type": "address"
        }
      ],
      "name": "pubKeyRegistry",
      "outputs": [
        {
          "name": "",
          "type": "string"
        }
      ],
      "payable": false,
      "stateMutability": "view",
      "type": "function"
    },
    {
      "constant": false,
      "inputs": [
        {
          "name": "recipient",
          "type": "address"
        },
        {
          "name": "hash",
          "type": "string"
        }
      ],
      "name": "sendMail",
      "outputs": [],
      "payable": false,
      "stateMutability": "nonpayable",
      "type": "function"
    },
    {
      "constant": true,
      "inputs": [
        {
          "name": "_address",
          "type": "address"
        }
      ],
      "name": "getPub",
      "outputs": [
        {
          "name": "",
          "type": "string"
        }
      ],
      "payable": false,
      "stateMutability": "view",
      "type": "function"
    },
    {
      "anonymous": false,
      "inputs": [
        {
          "indexed": true,
          "name": "to",
          "type": "address"
        },
        {
          "indexed": true,
          "name": "from",
          "type": "address"
        },
        {
          "indexed": false,
          "name": "hash",
          "type": "string"
        }
      ],
      "name": "Mail",
      "type": "event"
    }
  ],
  "bytecode": "0x6060604052341561000f57600080fd5b6106a58061001e6000396000f300606060405260043610610062576000357c0100000000000000000000000000000000000000000000000000000000900463ffffffff1680632510df3d146100675780633f89df30146100c4578063bd875fee14610176578063e3c0f1ac146101f2575b600080fd5b341561007257600080fd5b6100c2600480803590602001908201803590602001908080601f016020809104026020016040519081016040528093929190818152602001838380828437820191505050505050919050506102a4565b005b34156100cf57600080fd5b6100fb600480803573ffffffffffffffffffffffffffffffffffffffff169060200190919050506102fa565b6040518080602001828103825283818151815260200191508051906020019080838360005b8381101561013b578082015181840152602081019050610120565b50505050905090810190601f1680156101685780820380516001836020036101000a031916815260200191505b509250505060405180910390f35b341561018157600080fd5b6101f0600480803573ffffffffffffffffffffffffffffffffffffffff1690602001909190803590602001908201803590602001908080601f016020809104026020016040519081016040528093929190818152602001838380828437820191505050505050919050506103aa565b005b34156101fd57600080fd5b610229600480803573ffffffffffffffffffffffffffffffffffffffff169060200190919050506104da565b6040518080602001828103825283818151815260200191508051906020019080838360005b8381101561026957808201518184015260208101905061024e565b50505050905090810190601f1680156102965780820380516001836020036101000a031916815260200191505b509250505060405180910390f35b806000803373ffffffffffffffffffffffffffffffffffffffff1673ffffffffffffffffffffffffffffffffffffffff16815260200190815260200160002090805190602001906102f69291906105c0565b5050565b60006020528060005260406000206000915090508054600181600116156101000203166002900480601f0160208091040260200160405190810160405280929190818152602001828054600181600116156101000203166002900480156103a25780601f10610377576101008083540402835291602001916103a2565b820191906000526020600020905b81548152906001019060200180831161038557829003601f168201915b505050505081565b60008060008473ffffffffffffffffffffffffffffffffffffffff1673ffffffffffffffffffffffffffffffffffffffff1681526020019081526020016000208054600181600116156101000203166002900490501415151561040c57600080fd5b3373ffffffffffffffffffffffffffffffffffffffff168273ffffffffffffffffffffffffffffffffffffffff167f437b56a9b2eb48b00b73dc38ecf8be9cbee5e4f07cd4dbed27996844524d2b14836040518080602001828103825283818151815260200191508051906020019080838360005b8381101561049c578082015181840152602081019050610481565b50505050905090810190601f1680156104c95780820380516001836020036101000a031916815260200191505b509250505060405180910390a35050565b6104e2610640565b6000808373ffffffffffffffffffffffffffffffffffffffff1673ffffffffffffffffffffffffffffffffffffffff1681526020019081526020016000208054600181600116156101000203166002900480601f0160208091040260200160405190810160405280929190818152602001828054600181600116156101000203166002900480156105b45780601f10610589576101008083540402835291602001916105b4565b820191906000526020600020905b81548152906001019060200180831161059757829003601f168201915b50505050509050919050565b828054600181600116156101000203166002900490600052602060002090601f016020900481019282601f1061060157805160ff191683800117855561062f565b8280016001018555821561062f579182015b8281111561062e578251825591602001919060010190610613565b5b50905061063c9190610654565b5090565b602060405190810160405280600081525090565b61067691905b8082111561067257600081600090555060010161065a565b5090565b905600a165627a7a723058201745350fa2f3de36cee4837668d4a80e0dbb2daa9ab34b4e953ccb05cfa352730029",
  "source": "pragma solidity ^0.4.15;\n\ncontract Mail {\n\n    mapping (address => string) public pubKeyRegistry;\n\n    event Mail(address indexed to, address indexed from, string hash);\n\n    function getPub(address _address) public constant returns (string) {\n        return pubKeyRegistry[_address];\n    }\n\n    function updatePubRegistry(string pubKey) public {\n        pubKeyRegistry[msg.sender] = pubKey;\n    }\n\n    function sendMail(address recipient, string hash) public {\n        require(bytes(pubKeyRegistry[recipient]).length != 0);\n        Mail(recipient, msg.sender, hash);\n    }\n\n}\n",
  "sourcePath": "/Users/elliot/Documents/email/contracts/Mail.sol",
  "compiler": {
    "name": "solc",
    "version": "0.4.18+commit.9cf6e910.Emscripten.clang"
  },
  "schemaVersion": "1.0.1",
  "updatedAt": "2017-11-17T14:17:06.303Z"
}